:020000040800F2
:1000000000C00020CD6C0008075500080955000805
:100010000B5500080D5500080F55000800000000A2
:100020000000000000000000000000001155000862
:10003000135500080000000015550008175500086A
:10004000156D0008156D0008156D0008156D000888
:10005000156D0008156D0008156D0008156D000878
:10006000156D0008156D0008156D0008514B00084E
:10007000156D0008156D0008156D0008156D000858
:10008000156D0008156D0008156D0008156D000848
:10009000156D0008156D0008156D0008156D000838
:1000A000156D0008156D0008156D0008156D000828
:1000B000156D0008156D0008156D0008156D000818
:1000C000156D0008156D0008156D0008156D000808
:1000D000156D0008156D0008156D0008156D0008F8
:1000E000156D0008156D0008156D0008156D0008E8
:1000F000156D0008156D0008156D0008156D0008D8
:10010000156D0008156D0008156D0008156D0008C7
:10011000156D0008156D0008156D0008156D0008B7
:10012000156D0008156D0008156D0008156D0008A7
:1001300000000000000000000000000000000000BF
:1001400000000000000000000000000000000000AF
:10015000000000000000000000000000000000009F
:10016000000000000000000000000000000000008F
:10017000000000000000000000000000000000007F
:10018000000000000000000000000000000000006F
:10019000000000000000000000000000000000005F
:1001A000000000000000000000000000000000004F
:1001B000000000000000000000000000000000003F
:1001C000000000000000000000000000000000002F
:1001D000000000000000000000000000000000001F
:0401E0005FF8E0F1F3
:1001E4000348044B834202D0034B03B118477047C2
:1001F400C4010020C4010020000000000548064995
:100204000B1AD90F01EBA301491002D0034B03B120
:1002140018477047C4010020C401002000000000FA
:1002240010B5064C237843B9FFF7DAFF044B13B13A
:100234000448AFF300800123237010BDC8010020DF
:1002440000000000186D000808B5044B1BB10449F8
:100254000448AFF30080BDE80840CFE70000000089
:10026400CC010020186D000870B50D4E0D4D761BA5
:10027400B61006D0002455F8043B01349847A64232
:10028400F9D1094E094D06F045FD761BB61006D08E
:10029400002455F8043B01349847A642F9D170BDB7
:1002A400E8750008E8750008EC750008E8750008B2
:1002B400844641EA000313F0030349D1403A23D3AF
:1002C4000B6803604B6843608B688360CB68C360D2
:1002D4000B6903614B6943618B698361CB69C361BA
:1002E4000B6A03624B6A43628B6A8362CB6AC362A2
:1002F4000B6B03634B6B43638B6B8363CB6BC3638A
:1003040040304031403ADBD230320BD30B680360CB
:100314004B6843608B688360CB68C36010301031D6
:10032400103AF3D20C3205D351F8043B40F8043BA5
:10033400043AF9D2043208D0D2071CBF11F8013BA9
:1003440000F8013B01D30B8803806046704700BF6F
:10035400082A13D38B07B1D010F00303AED0C3F136
:100364000403D21ADB071CBF11F8013B00F8013B60
:10037400A4D331F8023B20F8023B9FE7043AD9D3D7
:10038400013A11F8013B00F8013BF9D20B780370F4
:100394004B7843708B78837060467047830730B521
:1003A40048D0541E002A3FD00346CAB201E0013CA3
:1003B4003AD303F8012B9D07F9D1032C2DD9CDB2E3
:1003C40045EA05250F2C45EA054536D9A4F1100266
:1003D40022F00F0C03F1200EE6444FEA121C03F145
:1003E400100242E9045542E9025510327245F8D12F
:1003F4000CF1010214F00C0F03EB021204F00F0CC9
:1004040013D0ACF1040323F003030433134442F880
:10041400045B9342FBD10CF003042CB1CAB21C441C
:1004240003F8012B9C42FBD130BD64461346002CDB
:10043400F4D1F9E703461446BFE71A46A446E0E7B9
:100444000EB410B5044683B008B183695BB106AB42
:100454002046059AA168019300F014FA03B0BDE8A0
:10046400104003B0704700F013F9F0E70FB410B573
:100474000A4B82B01C680CB1A3695BB105AB204682
:10048400049AA168019300F0FDF902B0BDE81040A0
:1004940004B07047204600F0FBF8EFE700000020AE
:1004A40000207047014900F033B900BFE112000891
:1004B40000207047682270B54D1E02FB05F50E46FC
:1004C40005F1740100F048F9044640B100210C30F4
:1004D400C4E9016005F168022160FFF75FFF20466F
:1004E40070BD00BF274B2DE9F0411E680746B36974
:1004F40053B34FF004084836D6E90134013B04D520
:100504001EE05A1C04F168041AD0B4F90C50013BE3
:10051400002DF6D11C4B08222946C4E90055C4E934
:100524000253C4E904556566A56104F15C00FFF754
:1005340035FFC4E90D55C4E912552046BDE8F081E4
:1005440035682DB12E46D7E7304600F01FF8D0E7C6
:100554004FF4D671384600F0FFF8044668B10560E0
:1005640029460546C0F804800C304FF4D072A060D0
:10057400FFF714FF34602E46BEE70C2330603B6067
:10058400DBE700BF306D00080100FFFF0023334AA2
:100594002DE9F0471268C0E912339042036508BFA1
:1005A40001232F4908BF836181620546FFF79AFF43
:1005B400034628466B60FFF795FFA8602846002491
:1005C400FFF790FF04236E68DFF898A0DFF8989097
:1005D400DFF89880264FE8600822F3602146C6E9D8
:1005E4000044C6E904447466B460B46106F15C0076
:1005F400FFF7D4FE1F4BC6E9086AC6E90A983763B9
:10060400AE680822F3602146C6E90044C6E9044402
:100614007466B460B46106F15C00FFF7BFFE164B6C
:10062400C6E9086AC6E90A983763EE682146F360AA
:100634000822C6E90044C6E904447466B460B4619F
:1006440006F15C00FFF7AAFE0123C6E9086AC6E9C1
:100654000B87C6F82890AB61BDE8F087306D0008C1
:10066400A9040008310F0008590F0008990F000869
:10067400B90F00080900010012000200024B0349EF
:10068400186800F045B800BF306D0008E11200089A
:10069400836903B97AE77047704700BF704700BFAA
:1006A400704700BF704700BF024B0349186800F051
:1006B4000FB800BF00000020A5040008024B034946
:1006C400186800F005B800BF00000020B504000859
:1006D4002DE9F0410026884600F14807D7E9015486
:1006E400013D0ED4A389013D012B06D9B4F90E3086
:1006F400013302D02046C04706436B1C04F1680452
:10070400F0D13F68002FE9D13046BDE8F08100BF49
:100714002DE9F8434FF000090746884600F14806E2
:10072400D6E90154013D10D4A389013D012B08D918
:10073400B4F90E30013304D021463846C04749EAA3
:1007440000096B1C04F16804EED13668002EE7D171
:100754004846BDE8F88300BFF8B5CD1C25F0030575
:1007640008350C2D38BF0C25002D064623DBA94285
:1007740021D8264F01F0FCF83A6822B3144603E06E
:1007840063682246FBB11C4623685B1BF8D40B2B21
:1007940015D8636894420CBF3B605360304601F047
:1007A400E9F804F10B00231D20F00700C21A01D060
:1007B4001B1AA350F8BD0C2300203360F8BD23603E
:1007C4001C442560EAE77968D1B12946304600F037
:1007D4009BFB431C01460CD0C41C24F00304A04220
:1007E40005D03046611A00F08FFB013001D025603E
:1007F400D4E70C233046336001F0BCF80020F8BD88
:10080400304600F081FB7860DFE700BFE4010020A0
:100814009368013B002B936005DAD2F818C0634556
:1008240007DB0A2905D01368581C106008461970A4
:10083400704700F0C3BB00BF9BB1F8B51344064634
:100844000F46541E5D1E01E0AC4208D03A463046C5
:1008540014F8011FFFF7DCFF431CF5D1F8BD00209D
:10086400F8BD0020704700BF936810B5144613B953
:100874001846536010BD00F09BFD0023C4E901330A
:1008840010BD00BF2DE9F04F0E4692461C460746A8
:100894009FB018B18369002B00F0A880954B9E424D
:1008A40000F0AA80944B9E4200F0B580934B9E4288
:1008B40008BFFE68B389180740F1A3803369002B91
:1008C40000F09F80002320220B9330239AF800101D
:1008D400059401258A4C8DF831208DF83230002999
:1008E4007DD0D1460B4604E019F8013F002B00F0FF
:1008F4009480252BF8D1B9EB0A0B40F0918099F83C
:100904000030002B6BD000234FF0FF3209F10109B6
:10091400CDE90723069309938DF85B301C9304E01B
:10092400001B05FA00F018430690CA46052220462B
:1009340019F8011B00F058FF069B0028F0D1D906D6
:1009440044BF20228DF85B201A0748BF2B229AF857
:10095400001048BF8DF85B202A2972D1059A1168CE
:10096400043200290592C0F2A08009919AF801107E
:100974000AF1010A2E2976D0DFF88891032248462D
:1009840000F032FF48B14022069BA0EB090002FAB6
:1009940000F003430AF1010A06931AF8011B062228
:1009A40059488DF8301000F01FFF002800F08380B4
:1009B400564B002B6CD005A9009132463846544B57
:1009C40006A9AFF300800390039B013307D00B9B70
:1009D400039A9AF8001013440B93002981D1B38928
:1009E4005B0615D40B981FB0BDE8F08FFFF750FEDF
:1009F400404B9E427FF456AF7E68B38918073FF59B
:100A04005DAF3146384600F051FB00283FF45AAF41
:100A14004FF0FF30E7E7BE684CE7B9EB0A0BDED0D6
:100A2400D046CAF1010A03E0934538D918F8011FEA
:100A340032463846FFF7ECFE01300AEB0802F3D1E8
:100A4400CDE7A1F13002092A94D8099B1AF8011FB5
:100A540003EB830302EB4303A1F13002092AF5D926
:100A64002E29099388D19AF801102A292DD1059BA2
:100A74000AF102001A680433002A0593B8BF4FF044
:100A8400FF339AF8021007928246B8BF079373E7C0
:100A9400059B073323F007030833059397E70B9A65
:100AA40099F800305A440B922BE7494243F0020371
:100AB400099106935AE705A9009132463846144B2A
:100AC40006A900F0CBF803907EE70023A1F13002E1
:100AD400092A0AF1010A07933FF64EAF1AF8011FDB
:100AE40003EB830302EB4303A1F13002092AF5D996
:100AF400079341E7746D0008546D0008346D0008D5
:100B0400AC750008B4750008B87500080000000052
:100B14003D0800088C4600B586461346034A7146D4
:100B240010685DF804EB6246FFF7ACBE00000020DD
:100B34002DE9F04791461E460A698B680C469A4295
:100B4400B8BF1A46C9F8002091F843300546DDF8CD
:100B5400208013B10132C9F80020226891065DD5C6
:100B6400D9F800300233C9F80030226812F0060FB9
:100B740011461ED1E168CB1A002BD8BF114618DDEF
:100B8400002704F1190A06E0D9F80030E268A2EB64
:100B9400030CBC450CDD0123524631462846C047B0
:100BA400013007F10107EFD14FF0FF30BDE8F087C6
:100BB400216894F84330003B18BF01238A060AD504
:100BC4003021E21882F8431094F845105A1C22444C
:100BD400023382F843103146284604F14302C047E9
:100BE4000130E1D0236803F00603042B1DD0A36871
:100BF4002269934225DD00279B1A1F4404F11A0938
:100C0400002401E0BC421CDA01234A46314628464E
:100C1400C047013004F10104F4D1C5E712F0060F16
:100C240012D0003B18BF0123D5E7D9F80030E168A2
:100C34002269C91AA36821EAE1779342DCDC00291E
:100C4400DCDC0020BDE8F087E168D9F80030CB1A7D
:100C5400002BD8BF114693DCABE700BF2DE9F0436E
:100C640017460A7E85B00C46064698460C9D01F14F
:100C7400430C002A33D0A2F15803D9B2202967D8F3
:100C8400202B65D8DFE813F0DD0064006400640005
:100C94006400640064006400640064006400A300F1
:100CA4006E0064006400640064006E00640064000C
:100CB4006400640021007F00BF0064006400AE0093
:100CC40064007F0064006400E40023681A0640F1B5
:100CD40002812B686269191D29601B681A60002350
:100CE400E14623613B4621463046CDF8008003AA05
:100CF400FFF71EFF013020D04A46394630462369AB
:100D0400C047013019D02368E0689B07039919D5BF
:100D1400431A002B16DD002504F1190904E0E068EC
:100D24000399431AAB420DDD01234A463946304646
:100D3400C047013005F10105F1D14FF0FF3005B096
:100D4400BDE8F0838842B8BF084605B0BDE8F0832B
:100D5400012384F8422004F142092361002384F82A
:100D64004330BFE72368190602D45A0600F1BF8056
:100D740029680A68043129601146002A6ADB0A25B9
:100D8400DFF87CE110E02368180640F19A802B68B4
:100D9400191D296019686F2A0CBF08250A25DFF878
:100DA40060E1002384F843306268002AA2607DDB9E
:100DB400236823F004032360002959D1002A77D142
:100DC400E146082D63D0ACEB090323618AE70122D5
:100DD4002B6804F14209196804332B6084F842102B
:100DE4002261BBE72B6800211A1D2A60D3F800900A
:100DF4006268484600F0F8FC00287FD0A0EB0900A8
:100E040060602061AAE7236843F02003236078220E
:100E1400DFF8F0E084F845202A68111D29601906DE
:100E240042D45D0640D51188D80744BF43F020035F
:100E34002360002943D12368102523F02003236075
:100E4400AFE75823DFF8B8E084F845302368E3E7D8
:100E54002368DCE72D2284F8432062684942002A93
:100E6400A26002DB23F0040323600A25DFF890E08C
:100E7400E146B1FBF5F30A4605FB131019461EF8CB
:100E84000030AA4209F8013DF3D2082D9BD1236812
:100E9400D90798D5626823699A4294DC302309F112
:100EA400FF3989F800308EE71168BDE70029DFD1EA
:100EB4009EF8003004F1420984F8423081E710259D
:100EC4006FE713F0400F2B6803F1040129600CBF96
:100ED400196819885FE713F0400F2B68626903F102
:100EE400040129601B6814BF1A801A60F7E62A6897
:100EF400B2F9001004322A600A463EE7606880E7CF
:100F0400C0750008D4750008002238B5064D0446A3
:100F140008462A6000F02CFE431C00D038BD2B6824
:100F2400002BFBD0236038BDEC01002010B50C462B
:100F3400B1F90E1000F0AEFD002803DB636D03442D
:100F4400636510BDA38923F48053A38110BD00BF42
:100F5400002070472DE9F0410C46B1F90C101F46F2
:100F6400CB05054616460BD421F48051A1813B469E
:100F740032462846B4F90E10BDE8F04100F080B8BE
:100F8400B4F90E100223002200F08AFBB4F90C100D
:100F9400EAE700BF10B50C46B1F90E1000F080FB73
:100FA400A389421C0EBF23F4805343F4805360652D
:100FB400A38110BDB1F90E1000F0FAB8F8B50646D9
:100FC4000D46144608B1836943B3254B9C422AD08D
:100FD400244B9C4229D0244B9C4208BFF468A2694C
:100FE400A389A2601A0722D5236903B32268616921
:100FF400D31AEDB299422F4629DD0133A168013994
:10100400A160511C2160157062699A4216D0A389AF
:10101400DB0701D50A2D11D03846F8BDFFF738FBA0
:101024000F4B9C42D4D17468D9E7B468D7E7214602
:10103400304600F03BF838B92369D7E721463046FB
:1010440000F04CF90028E7D04FF0FF37E4E72146E1
:10105400304600F043F90028F6D101232268CDE799
:10106400746D0008546D0008346D000803460A4688
:10107400024908681946FFF7A1BF00BF000000201D
:1010840038B50C46114600228446074D20462A6096
:101094001A46644600F07AFD431C00D038BD2B6824
:1010A400002BFBD0236038BDEC0100203C4B70B515
:1010B4001D6806460C460DB1AB69E3B1394B9C4241
:1010C4001FD0394B9C424DD0384B9C4208BFEC6832
:1010D400B4F90C3018079AB219D5216911B312F07A
:1010E40001002FD000256069A5604042A06100295D
:1010F4002ED0002070BD2846FFF7CAFA294B9C4227
:10110400DFD16C68B4F90C3018079AB2E5D4D10673
:101114003ED5520728D4216943F00803A3819AB22B
:101124000029DCD102F42070B0F5007FD7D021462D
:10113400304600F0CBFAB4F90C3021699AB212F0BF
:101144000100CFD1950758BF6069A0600029D0D1B4
:10115400120658BF0846CDD543F040034FF0FF3088
:10116400A38170BDAC68B3E7616B51B104F1440273
:10117400914204D0304600F0FFFBB4F90C30002259
:1011840062630022216923F02403C4E90012C3E747
:10119400092243F0400332604FF0FF30A38170BD59
:1011A40000000020746D0008546D0008346D0008C0
:1011B400002238B5064D044608462A6000F0B0FC0B
:1011C400431C00D038BD2B68002BFBD0236038BDF6
:1011D400EC010020F8B58B890C46190707463BD46F
:1011E4006268002A55DDE66A002E50D000223D6870
:1011F4003A6013F4805250D101233846216AB04733
:10120400421C5CD0A389E66A5B0705D56368C01AF3
:10121400636B0BB1236CC01A0246216A0023384663
:10122400B047411C3BD13B68002B38D01D2B01D06B
:10123400162B4BD100232269C4E90023616B3D6066
:1012440029B304F14403994202D0384600F094FBD8
:10125400002318466363F8BD2669C6B19A0718BF10
:101264000023256808BF63692660AD1BA3600CE0FA
:101274002B463246D4F828C03846216AE047B0F1FC
:10128400000CA5EB0C05664412DD002DF0DC0020FB
:10129400F8BD226C002AA6DCF9E7606DB4E70022F1
:1012A400236962602360A389DB04C7D56065C5E751
:1012B400A3894FF0FF3043F04003A381F8BD3B689E
:1012C400002B9FD01D2B06D0162B04D0A38943F0EE
:1012D4004003A381F8BD00203D60F8BD38B50B691B
:1012E400BBB10C46054608B18369B3B10D4B9C42B2
:1012F40011D00D4B9C4213D00C4B9C4208BFEC68A0
:10130400B4F90C302BB121462846BDE83840FFF72C
:1013140061BF002038BD6C68F2E7FFF7B9F9E5E773
:10132400AC68EDE7746D0008546D0008346D000876
:1013340038B540B303690446E3B1174B1D680DB1DA
:10134400AB69CBB1154B9C420FD0154B9C4221D0BD
:10135400144B9C4208BFEC68B4F90C3053B12146DD
:101364002846BDE83840FFF735BF6C68B4F90C3047
:10137400002BF4D1002038BD2846FFF789F9074B2C
:101384009C42E2D1F1E7084B08491868BDE83840AF
:10139400FFF7BEB9AC68DFE700000020746D0008F9
:1013A400546D0008346D0008306D0008E112000827
:1013B4009368002B00F0B7802DE9F04FB1F90C30A1
:1013C4000C4619078046174683B098B225D5236981
:1013D4001BB310F002033D682DD04FF0000B5E46A6
:1013E400DFF8B8A2002E00F08B80564533465A46EB
:1013F40028BF53464046216AD4F828C0E047002855
:1014040040F38780BB6883441B1A361ABB60002BE9
:10141400E8D1002003B0BDE8F08F21464046FFF735
:1014240045FE002840F03681B4F90C303D6898B28E
:1014340010F00203D1D110F0010976D14E46002EEE
:101444005AD08205D4F808B040F1B580B3455A4665
:1014540000F2CD8010F4906F00F0CB8023682169F6
:10146400A3EB010B636903EB430A0AEBDA7A0BF192
:1014740001034FEA6A0A33445345524684BF9A46ED
:101484005246430540F1EA8011464046FFF764F9AD
:10149400002800F0F9805A4621690190FEF708FF00
:1014A400A289019B22F4906242F08002A28103EBA4
:1014B4000B0023613246AAEB0B03B346C4F814A015
:1014C400A3602060B24600264946019200F0D4F998
:1014D400A3682168019AA3EB0B030A44A36022606A
:1014E400B868D144A0EB0A00B860002891D0B4F9E0
:1014F4000C0080B2002EA4D1D5E9009608359EE7F1
:10150400D5E900B608356DE721464046FFF7E6FE0B
:1015140080B3B4F90C304FF0FF3043F04003A381A3
:1015240003B0BDE8F08F002070471E46AA469946D6
:1015340018461D4656B3002832D04A462068216911
:10154400B24228BF32468842636904D9A16803EBDA
:10155400010B5A4574DC934265DC2A464046216AF5
:10156400D4F828C0E047B0F1000BD2DDB9EB0B0989
:10157400CAD00120BB685D44A3EB0B03A6EB0B06AA
:10158400BB60002B3FF445AF002ED4D10AF1080311
:1015940053F8046C9A4653F8085C0833002EF7D0CD
:1015A40032460A21284600F01FF9002869D001308C
:1015B400A0EB0509C1E72068236998421BD8636939
:1015C400B34218D86FF0004CB44528BFB4469CFB16
:1015D400F3FC4A4603FB0CF34046216AD4F828C0C6
:1015E400E047B0F1000A94DDA6EB0A0678E7B346BB
:1015F4003246206866E7B345DA4628BFB246494614
:10160400524600F039F9A3682268A3EB0A03524456
:10161400A3602260002BE7D121464046FFF75EFE1F
:101624000028E1D075E729469346019200F024F999
:10163400A368019A9B1AA36023681A44226095E761
:1016440029465A4600F018F9236821465B4440466F
:101654002360FFF743FE002888D05AE7404600F095
:10166400F1F9034600287FF422AF4046216900F0D7
:1016740083F90C22B4F90C30C8F8002023F080035D
:1016840049E7721C914659E70C22B4F90C30C8F8AA
:10169400002040E74FF0FF30BCE600BF00FCFF7FB6
:1016A40038B50C46114600228446074D20462A6070
:1016B4001A46644600F04CFA431C00D038BD2B682F
:1016C400002BFBD0236038BDEC010020F0B58B89E2
:1016D4000C46990797B007D5012204F14703C4E9E2
:1016E4000432236017B0F0BDB4F90E10054600298A
:1016F4002DDB6A4600F0E4F9002827DB019E4FF455
:10170400806706F47046A6F50056B6FA86F63946A2
:1017140028467609FFF720F830B3A3891A4A43F024
:101724008003AA62C4E90407A3812060002ED9D0F3
:101734002846B4F90E1000F0D7F90028D2D0A389B6
:1017440023F0030343F00103A381CBE7A38913F040
:10175400800F14BF40274FF480672846394600267F
:10176400FEF7FAFF0028D8D1B4F90C309A05B9D4A1
:10177400012123F0030304F1470243F00203C4E907
:101784000421A3812260ADE7A904000870B50C46CA
:10179400B1F90E10164600291D4696B013DB6A46B1
:1017A40000F08EF900280EDB01994FF4806301F4F8
:1017B4007041A1F50051B1FA81F100204909296075
:1017C400336016B070BD0022B4F90C302A601B06D9
:1017D40004D540230020336016B070BD4FF48063FD
:1017E4000020336016B070BD5FFA81FC810710D011
:1017F4000346511E2AB90AE09A0718460AD001394D
:1018040005D3184613F8012B6245F5D17047002023
:101814007047114603290CD80029F8D00346014427
:1018240001E08B42F3D0184613F8012B6245F8D13E
:10183400ECE7024610B54CEA0C2444EA0444104692
:10184400036804326340A3F1013E2EEA030313F05C
:10185400803F04D1043903291046F0D851B103461E
:10186400014401E08B4205D0184613F8012B624570
:10187400F8D110BD002010BD88420DD98B188342C9
:101884000AD900EB020CBAB1624613F801CD9942B1
:1018940002F801CDF9D170470F2A0ED8034602F1A0
:1018A400FF3C4AB10CF1010C013B8C4411F8012BB3
:1018B400614503F8012FF9D1704740EA01039B0702
:1018C4004FD1A2F1100370B501F1200C23F00F05E4
:1018D40001F1100E00F11004AC441B095EF8105C19
:1018E4000EF1100E44F8105C5EF81C5C103444F8E1
:1018F4001C5C5EF8185C44F8185C5EF8145CE64501
:1019040044F8145CEAD1013312F00C0F01EB03111B
:1019140002F00F0400EB031327D08E46043C24F09E
:1019240003064FEA940C1E441C1F5EF8045B44F843
:10193400045FB442F9D10CF1010402F0030203EB99
:10194400840301EB840102F1FF3C4AB10CF1010C68
:10195400013B8C4411F8012B614503F8012FF9D1A7
:1019640070BD034602F1FF3C9CE72246EBE700BF53
:10197400704700BF704700BF002952D038B551F8F6
:10198400043C0C1F002BB8BFE4180546FFF7F0FF1A
:101994002B4A1368002B45D0A3420CD92168601848
:1019A400834228D0636028461460BDE83840FFF7BE
:1019B400E1BFA3420FD81A465B68002BF9D1116826
:1019C400501884421DD034D3636054602846BDE867
:1019D4003840FFF7CFBF11685018A04215D028D85F
:1019E400216860188342EFD118685B680144C4E938
:1019F40000135460EAE718685B680144C4E9001303
:101A0400D1E7236819441160E0E7206801445018C5
:101A140083421160DAD1D3E900030144C2E900131F
:101A2400D4E77047284663601460BDE83840FFF788
:101A3400A1BF0C2328462B60BDE83840FFF79ABFAE
:101A4400E4010020F8B51446F9B1CAB106460D46C2
:101A540000F05CF8A04202D32F463846F8BD214678
:101A64003046FEF779FE07460028F6D0224629467E
:101A7400FEF71EFC30462946FFF77EFF3846F8BDC8
:101A84002746FFF779FF3846F8BD1146BDE8F84010
:101A9400FEF762BE38B50C46114600228446074D57
:101AA40020462A601A46644600F05AF8431C00D0C7
:101AB40038BD2B68002BFBD0236038BDEC0100201F
:101AC40070B50026074D0446084611462E6000F006
:101AD4002FF8431C00D070BD2B68002BFBD0236073
:101AE40070BD00BFEC010020002238B5064D04464D
:101AF40008462A6000F024F8431C00D038BD2B6847
:101B0400002BFBD0236038BDEC01002051F8040CFD
:101B14000028A0F10400BCBF0B58C018704700BFD8
:101B24005822024B4FF0FF301A607047EC0100203E
:101B34005822024B4FF0FF301A607047EC0100202E
:101B44005822024B00201A60704700BFEC010020AD
:101B54005822024B4FF0FF301A607047EC0100200E
:101B64005822024B4FF0FF301A607047EC010020FE
:101B7400044A05491368002B08BF0B46184410603B
:101B840018467047F0010020380600205822024B06
:101B94004FF0FF301A607047EC010020044B002224
:101BA400DA61044A136943F0010313610180704749
:101BB400F801002000200240194BDB6813F01003E9
:101BC40005D0184AD36943F00203D3611023144AA1
:101BD400D26812F0040F06D01249CA6942F0010219
:101BE400CA6143F004030E4AD26912F0010F09D00E
:101BF4000C49CA6942F00402CA610949CA6922F05F
:101C04000102CA6140F20112934202D0044AD36035
:101C14007047034AD36923F00103D361704700BFBF
:101C240000200240F8010020074B1B6913F0800FCD
:101C340007D0054B054A5A6002F188325A600020E9
:101C440070470120704700BF002002402301674510
:101C5400034A136943F0800313610020704700BFF7
:101C64000020024038B5044601F062F90546164BDF
:101C7400DB6813F0010F0AD0B4F1FF3FF7D024B1B1
:101C840001F056F9401BA042F1D903201BE00E4B92
:101C9400DB6813F0200F02D00B4B2022DA600A4BD2
:101CA400DB6813F0100F0BD1074BDB6913F0010F46
:101CB40006D1054BDB6813F0040F01D1002002E0CC
:101CC400FFF77AFF012038BD002002402DE9F843D8
:101CD4001E46244B1B7E012B41D004460F469046E2
:101CE400204B01221A764CF25030FFF7BBFF03461B
:101CF40078BB012C08D0022C03D04FF004091C46F9
:101D040007E04FF00209FAE74FF00109F7E7013461
:101D1400E4B24C451DD22101C1F12002A1F12003FE
:101D240028FA01F106FA02F2114326FA03F31943E1
:101D340089B207EB4400FFF731FF4CF25030FFF754
:101D440091FF094B1D6925F001051D61034600281B
:101D5400DDD0044A002111761846BDE8F883022339
:101D6400FAE700BFF80100200020024082B0084BCF
:101D74001B68084AA2FB03235B0A00FB03F30193DD
:101D840000BF019B5A1E0192002BF9D102B070478B
:101D940064000020D34D621070B582B0044603681D
:101DA40013F0010F2CD09A4B5B6803F00C03042B47
:101DB4001DD0974B5B6803F00C03082B12D06368AB
:101DC400B3F5803F41D0002B55D103F1804303F597
:101DD40004331A6822F480321A601A6822F48022CA
:101DE4001A6037E08A4B5B6813F4803FE7D0884B76
:101DF4001B6813F4003F03D06368002B00F0AE812E
:101E0400236813F0020F75D0814B5B6813F00C0F3D
:101E14005FD07F4B5B6803F00C03082B54D023691D
:101E2400002B00F08A807B4B01221A6001F080F8BD
:101E34000546774B1B6813F0020F75D101F078F853
:101E4400401B0228F5D903208DE1714A136843F43D
:101E540080331360636843B301F06AF805466C4B42
:101E64001B6813F4003FCBD101F062F8401B6428D7
:101E7400F5D9032077E1B3F5A02F09D0644B1A6894
:101E840022F480321A601A6822F480221A60E1E790
:101E940003F18043A3F53C331A6842F480221A60AC
:101EA4001A6842F480321A60D4E701F041F805461A
:101EB400574B1B6813F4003FA2D001F039F8401BC4
:101EC4006428F5D903204EE1514B5B6813F4803F3D
:101ED400A5D14F4B1B6813F0020F03D02369012BCC
:101EE40040F03E814A4A136823F0F803616943EAEB
:101EF400C1031360236813F0080F33D0A369002BC8
:101F04005CD0444B0122C3F8802401F011F805464B
:101F14003F4B5B6A13F0020F21D101F009F8401B1B
:101F24000228F5D903201EE1394A136823F0F80387
:101F3400616943EAC1031360DCE7364B00221A608F
:101F440000F0F6FF0546324B1B6813F0020FD1D0A8
:101F540000F0EEFF401B0228F5D9032003E1012025
:101F6400FFF704FF236813F0040F00F09780284B59
:101F7400DB6913F0805F34D1254BDA6942F080527B
:101F8400DA61DB6903F080530193019B0125224B45
:101F94001B6813F4807F26D0E368012B3ED0002B0E
:101FA40054D103F1804303F504331A6A22F0010289
:101FB4001A621A6A22F004021A6234E0154B0022F3
:101FC400C3F8802400F0B4FF0546114B5B6A13F09C
:101FD400020FC7D000F0ACFF401B0228F5D9032044
:101FE400C1E00025D3E70C4A136843F480731360FF
:101FF40000F09EFF0646084B1B6813F4807FCBD18C
:1020040000F096FF801B6428F5D90320ABE000BFE5
:10201400001002400000424200700040544A136A1B
:1020240043F001031362E36833B300F081FF064613
:102034004F4B1B6A13F0020F2FD100F079FF801B66
:1020440041F288339842F3D903208CE0052B09D060
:10205400474B1A6A22F001021A621A6A22F0040239
:102064001A62E0E7424B1A6A42F004021A621A6AE0
:1020740042F001021A62D6E700F05AFF06463C4BD2
:102084001B6A13F0020F08D000F052FF801B41F2CC
:1020940088339842F3D9032065E0E5B9E369002B5E
:1020A40060D0334A526802F00C02082A5DD0022B39
:1020B40017D0304B00221A6600F03AFF04462C4B2E
:1020C4001B6813F0007F47D000F032FF001B02288A
:1020D400F5D9032047E0264AD36923F08053D3611E
:1020E400DCE7244B00221A6600F022FF0546204B51
:1020F4001B6813F0007F06D000F01AFF401B022873
:10210400F5D903202FE0236AB3F5803F1AD018498C
:102114004B6823F47413226A606A024313434B60CE
:10212400144B01221A6600F003FF0446104B1B688F
:1021340013F0007F0ED100F0FBFE001B0228F5D93E
:10214400032010E00A4A536823F40033A1680B43C8
:102154005360DCE7002006E0002004E0012002E0F8
:10216400012000E0002002B070BD0120FBE700BFA9
:10217400001002400000424286B0174B0FCB0DF115
:10218400180C0CE90F0040F20123ADF80430134B96
:102194005B6803F00C02082A02D0114806B07047AD
:1021A400C3F3834218326A4412F8100C13F4803FCC
:1021B4000DD00A4B5B68C3F3404318336B4413F8E8
:1021C400142C074BB3FBF2F303FB00F0E6E7054BDB
:1021D40003FB00F0E2E700BF946D0008001002402A
:1021E40000127A0000093D0070B504460D46594BB3
:1021F4001B6803F007038B420BD2564A136823F083
:1022040007030B431360136803F007038B4240F08A
:102214009A80236813F0020F06D04F4A536823F0C4
:10222400F003A1680B435360236813F0010F52D0ED
:102234006368012B23D0022B28D0474A126812F07E
:10224400020F00F0828044494A6822F003021343DB
:102254004B6000F06DFE06466368012B1DD0022B17
:102264002AD03D4B5B6813F00C0F34D000F060FEB5
:10227400831B41F288329342F3D9032062E0364A49
:10228400126812F4003FDED101205BE0324A12688A
:1022940012F0007FD7D1012054E02F4B5B6803F08C
:1022A4000C03042B17D000F043FE831B41F2883249
:1022B4009342F2D9032045E0274B5B6803F00C03FB
:1022C400082B08D000F034FE801B41F2883398427A
:1022D400F2D9032036E01F4B1B6803F00703AB421F
:1022E4000AD91C4A136823F007032B4313601368AD
:1022F40003F00703AB422AD1236813F0040F06D07E
:10230400154A536823F4E063E1680B435360236880
:1023140013F0080F07D0104A536823F4605321695F
:1023240043EAC1035360FFF727FF0B4B5B68C3F31A
:1023340003130A4AD35CD840094B1860002000F00C
:10234400C7FD002070BD0120FCE70120FAE7012051
:10235400F8E700BF0020024000100240A86D00080A
:1023640064000020014B1868704700BF640000201F
:1023740030B4036A23F001030362036A4268846988
:1023840024F073040D682C4323F0020C8B6843EA99
:102394000C03104DA84203D005F50065A84205D1F1
:1023A40023F00803CD682B4323F00403094DA8420E
:1023B40003D005F50065A84205D122F440724D69A9
:1023C4002A438D692A43426084614A6842630362F6
:1023D40030BC7047002C014030B4036A23F480738E
:1023E4000362036A4268C46924F0730C0C6844EA0B
:1023F4000C0523F400738C6843EA0423114CA042B7
:1024040003D004F50064A04206D123F40063CC6831
:1024140043EA042323F480630A4CA04203D004F566
:102424000064A04207D122F440524C6942EA0412EB
:102434008C6942EA04124260C5614A68C26303625D
:1024440030BC7047002C014030B4036A23F480533D
:102454000362036A4468C26922F4E6420D6842EAF0
:10246400052223F400538D6843EA0533094DA8423D
:1024740003D005F50065A84204D124F480444D69D5
:1024840044EA85144460C2614A680264036230BC51
:10249400704700BF002C014010B4036A046A24F0A2
:1024A40001040462846924F0F00C4CEA021223F063
:1024B4000A030B438261036210BC704710B4046AC0
:1024C40024F0100404628469036A24F4704C4CEA16
:1024D400023223F0A00343EA01138261036210BCB9
:1024E400704710B4846824F47F4C42EA03220A4300
:1024F40042EA0C02826010BC704710B50468A268FE
:1025040022F070024B68134323F007030A68134355
:10251400A3604B68602B24D009D8402B10D0502BDB
:102524000DD10A6989680068FFF7B6FF07E0702BD0
:1025340005D10B698A68C9680068FFF7D2FF10BD2E
:1025440003681C6A1A6A22F001021A62026893691B
:1025540023F0F003096943EA0113936103681C62E1
:10256400EDE70A6989680068FFF7A8FFE7E77047A5
:1025740038B590F83C30012B18D00446012580F87A
:102584003C50022380F83D30FFF7B7FF2268D36840
:1025940023F04003D3602268D36823F48043D360DC
:1025A40084F83D50002084F83C0038BD0220FCE74C
:1025B4000368244A904212D002F5006290420ED081
:1025C400B0F1804F0BD0A2F59832904207D002F5BB
:1025D4008062904203D002F58062904203D123F0DE
:1025E40070034A681343174A904212D002F50062FE
:1025F40090420ED0B0F1804F0BD0A2F598329042A9
:1026040007D002F58062904203D002F580629042C6
:1026140003D123F44073CA68134323F080034A6947
:10262400134303608B68C3620B688362054B984253
:1026340003D003F50063984201D10B6903630123BE
:1026440043617047002C0140B0B110B5044690F8C6
:102654003D3063B1022384F83D30214651F8040B28
:10266400FFF7A6FF012384F83D30002010BD80F859
:102674003C30FFF77CFFEDE70120704730B4036A7C
:1026840023F010030362036A4468826922F4E64279
:102694000D6842EA052223F020038D6843EA0513FE
:1026A400114DA84203D005F50065A84206D123F0D8
:1026B4008003CD6843EA051323F040030A4DA84282
:1026C40003D005F50065A84207D124F440644D69A0
:1026D40044EA85048D6944EA8504446082614A6859
:1026E4008263036230BC7047002C014038B590F817
:1026F4003C30012B66D004460D46012380F83C3063
:10270400022380F83D300C2A1AD8DFE802F00719BA
:102714001919201919193419191947000068FFF7F4
:1027240027FE2268936943F0080393612268936942
:1027340023F0040393612268936929690B4393612D
:10274400012384F83D30002084F83C0038BD006843
:10275400FFF794FF2268936943F40063936122684E
:10276400936923F48063936122689369296943EA36
:1027740001239361E4E70068FFF72EFE2268D36922
:1027840043F00803D3612268D36923F00403D361BF
:102794002268D36929690B43D361D1E70068FFF745
:1027A40053FE2268D36943F40063D3612268D3697A
:1027B40023F48063D3612268D369296943EA01233E
:1027C400D361BDE70220C1E7012303FA01FC036AD8
:1027D40023EA0C030362036A02FA01F10B43036266
:1027E4007047000010B5044601220068FFF7ECFFB3
:1027F4002368094A934203D002F50062934203D14D
:102804005A6C42F400425A642268136843F001038C
:102814001360002010BD00BF002C0140042303FA04
:1028240001FC036A23EA0C030362036A02FA01F15E
:102834000B430362704710B5044604220068FFF797
:10284400EDFF2268536C43F4004353642268136819
:1028540043F001031360002010BD90F83C30012BBD
:1028640025D0012380F83C30CB6823F440738A6878
:10287400134323F480634A68134323F400630A6810
:10288400134323F480530A69134323F400534A691E
:10289400134323F480438A69134323F4004313430B
:1028A40002685364002380F83C30184670470220C5
:1028B400704790F83C30012B22D030B4012280F8CC
:1028C4003C20022380F83D300468636823F07003E1
:1028D4006360046863680D682B4363600468A368DD
:1028E40023F08003A3600468A36849680B43A360D2
:1028F40080F83D20002380F83C30184630BC7047F7
:102904000220704790F82420012A25D08CB0034679
:10291400012280F82420114A00920268906810F085
:10292400010F07D10D48806810F0010F02D10C4847
:10293400824209D09A6A42F020029A62012000225F
:1029440083F824200CB07047506820F47020096884
:10295400014351600020F2E7022070470028014043
:1029640000240140074AD36823F4E0631B041B0CD2
:10297400000200F4E060034343F0BF6343F4003318
:10298400D360704700ED00E000B5194BDB68C3F37A
:102994000223C3F1070CBCF1040F28BF4FF0040C51
:1029A40003F1040EBEF1060F18D9033B4FF0FF3EAE
:1029B4000EFA0CFC21EA0C0199400EFA03F322EA08
:1029C4000303194300280BDB0901C9B200F160407D
:1029D40000F5614080F800135DF804FB0023E5E78F
:1029E40000F00F000901C9B2024B1954F4E700BF0B
:1029F40000ED00E014ED00E000F01F0240090123A7
:102A04009340024A42F82030704700BF00E100E0E2
:102A14000138B0F1807F0BD24FF0E0235861054AB2
:102A2400F02182F823100020986107221A61704770
:102A34000120704700ED00E0042806D04FF0E022AA
:102A4400136923F00403136170474FF0E022136904
:102A540043F0040313617047704708B5FFF7FCFFA8
:102A640008BD0000064B0022DA61064B1A6942F0E9
:102A740004021A611A6942F040021A61704700BFE9
:102A8400F801002000200240064B0022DA61064BC8
:102A94001A6942F002021A6158611A6942F040024E
:102AA4001A617047F801002000200240264B1B7E6B
:102AB400012B46D070B505460E46234B01221A76EB
:102AC4000368022B20D04CF25030FFF7CBF890BBB8
:102AD4004FF0FF333360AC680121EA68AB6803EB65
:102AE400C223A34228D92046FFF7CEFF4CF2503030
:102AF400FFF7B8F8154A136923F00203136101467E
:102B0400B8B904F50064E8E74CF25030FFF7AAF8CE
:102B140008B1012110E00120FFF7A4FF4CF250306E
:102B2400FFF7A0F80146094A136923F0040313616F
:102B340002E0346000E00121034B00221A760846CB
:102B440070BD022108467047F801002000200240B1
:102B540070B582B00024A446B0E0874DAA4210D0DC
:102B640007D9864DAA420CD005F58035AA4208D073
:102B740013E0A5F58015AA4203D005F57025AA42F5
:102B840007D18A68002A62D0012A5BD043610824F5
:102B940003E0A5F58015AA42F3D0BEF1FF0F58D883
:102BA4000646BEF1FF0F56D84FEA8C0233680F2554
:102BB400954023EA050304FA02F2134333604B6899
:102BC40013F0805F78D06E4B9A6942F001029A61EB
:102BD4009B6903F001030193019B4FEA9C02951C3E
:102BE400684B53F825600CF003039D000F23AB40A2
:102BF40026EA0306644B984233D003F58063984277
:102C040000F0988003F58063984200F0958003F506
:102C14008063984200F0928003F58063984200F04C
:102C24008F8003F58063984219D006231AE0CC689C
:102C3400B3E7CC680434B0E7CC680834ADE7CC68BB
:102C44000C34AAE703610824A7E70024A5E70424B9
:102C5400A3E7061DA5E7ACF108029200A6E7052349
:102C640000E00023AB4033430232464D45F82230A6
:102C74004B6813F4803F65D0444A136843EA0E035B
:102C840013604B6813F4003F62D0404A536843EA30
:102C94000E0353604B6813F4801F5FD03B4A936864
:102CA40043EA0E0393604B6813F4001F5CD0374A69
:102CB400D36843EA0E03D3600CF1010CBCF10F0F8F
:102CC40058D8012303FA0CF30A6802EA030E33EA24
:102CD4000202F1D14A68122A3FF63FAF122A3FF6A8
:102CE4005CAF01A555F822F0872B0008332C0008AF
:102CF4003D2C00084F2C00089F2B00089F2B000838
:102D04009F2B00089F2B00089F2B00089F2B000877
:102D14009F2B00089F2B00089F2B00089F2B000867
:102D24009F2B00089F2B00089F2B0008372C0008BE
:102D3400432C0008012395E7022393E7032391E73B
:102D440004238FE7114A136823EA0E03136098E7FC
:102D54000E4A536823EA0E0353609BE70B4A9368B9
:102D640023EA0E0393609EE7084AD36823EA0E031E
:102D7400D360A1E702B070BD000022100000311042
:102D8400001002400000014000080140000401401E
:102D94008368194201D001207047002070470AB1AE
:102DA40001617047090401617047C3685940C160FB
:102DB4007047000070B582B00446036813F0010F39
:102DC40036D03F4BDB6913F0805F49D13C4BDA6965
:102DD40042F08052DA61DB6903F080530193019B76
:102DE4000125384B1B6813F4807F3BD0344B1B6A9E
:102DF40013F4407313D0626802F440729A420ED006
:102E04002F4A136A23F440702F490126C1F8406405
:102E14000026C1F84064106213F0010F36D1284A2D
:102E2400136A23F4407361680B431362002D3ED18F
:102E3400236813F0020F06D0214A536823F4404359
:102E4400A1680B435360236813F0100F34D01C4A5D
:102E5400536823F4800361690B43536000202CE022
:102E64000025BEE7174A136843F48073136000F02B
:102E74005FF80646134B1B6813F4807FB6D100F04D
:102E840057F8801B6428F5D9032016E000F050F8A9
:102E940006460B4B1B6A13F0020FC0D100F048F832
:102EA400801B41F288339842F3D9032005E0D369AB
:102EB40023F08053D361BBE7002002B070BD00BF94
:102EC40000100240007000400000424270470000C1
:102ED40010B50446074B1868074BA3FB0030800964
:102EE400FFF796FD002221464FF0FF30FFF74CFD1F
:102EF400002010BD64000020D34D621008B5074ABD
:102F0400136843F0100313600320FFF72BFD002028
:102F1400FFF7DEFFFFF7DAFF002008BD00200240C4
:102F2400024A136801331360704700BF180200207F
:102F3400014B1868704700BF1802002030B583B0F9
:102F44000190FFF7F5FF0546019CB4F1FF3F00D067
:102F54000134FFF7EDFF401BA042FAD303B030BDAC
:102F64007047000030B482B00022019290F824200F
:102F7400012A00F091800346012280F824204A6847
:102F8400062A2DD80468606B02EB8202053A4FF0E2
:102F94001F0C0CFA02FC20EA0C000D6805FA02F280
:102FA400024362630A68092A3AD91C68E06802EBA2
:102FB40042021E3A4FF0070C0CFA02FC20EA0C0005
:102FC4008D6805FA02F20243E2600A68103A012AA7
:102FD40036D90020002283F8242002B030BC704788
:102FE4000C2A0ED80568286B02EB8202233A1F24B0
:102FF400944020EA04000C6804FA02F202432A63B3
:10300400D0E70568E86A02EB8202413A1F24944043
:1030140020EA04000C6804FA02F20243EA62C1E7FF
:103024001C68206902EB42024FF0070C0CFA02FC08
:1030340020EA0C008D6805FA02F202432261C4E71B
:103044001A681648824205D09A6A42F020029A62AF
:103054000120BFE7906810F4000F1BD1906840F482
:10306400000090600A68102A01D00020B2E70C4AE0
:1030740012680C49A1FB0212920C02EB820252006C
:10308400019202E0019A013A0192019A002AF9D1CF
:1030940000209FE700209DE702209EE700240140D6
:1030A4006400002083DE1B4330B583B0002301930A
:1030B40003689A6812F0010F2ED104469A6842F010
:1030C40001029A60164B1B68164AA2FB03239B0C51
:1030D400019302E0019B013B0193019B002BF9D179
:1030E400FFF726FF054623689B6813F0010F11D1F3
:1030F400FFF71EFF431B022BF5D9A36A43F010030D
:10310400A362E36A43F00103E362002384F82430FA
:10311400012002E0002000E0002003B030BD00BF29
:103124006400002083DE1B4390F82430012B68D018
:1031340010B50446012380F82430FFF7B5FF0028BA
:103144005BD1A36A23F4407323F0010343F4807337
:10315400A36223682C4A934227D0A26A22F48012E5
:10316400A2625A6812F4806F05D0A26A22F4405217
:1031740042F48052A262A26A12F4805F2BD0E26A07
:1031840022F00602E262002284F824206FF0020298
:103194001A6023689A6802F46022B2F5602F1DD089
:1031A4009A6842F480129A602AE0A2F5806252681A
:1031B40012F4702FD1D0A26A42F48012A262134A90
:1031C400526812F4806FD6D0A26A22F4405242F4BC
:1031D4008052A262CFE70022E262D4E70A4A934215
:1031E40004D09A6842F4A0029A6009E0A2F58062D1
:1031F400526812F4702FD3D1F3E7002384F82430FB
:1032040010BD0220704700BF002801400024014087
:1032140038B503689A6812F0010F01D1002038BD57
:1032240004469A6822F001029A60FFF781FE05467F
:1032340023689B6813F0010F0ED0FFF779FE431B40
:10324400022BF5D9A36A43F01003A362E36A43F0A7
:103254000103E3620120E2E70020E0E7002800F038
:103264008680F8B50446836A002B50D02046FFF7C9
:10327400CFFFA36A13F0100373D1002871D1A26A9F
:1032840022F4885222F0020242F00202A262626830
:10329400266838498E4240D0E1690A43E16842EA2F
:1032A4004102A568B5F5807F02D0012D3CD01D46B2
:1032B4006769012F3BD0716821F46941294371602A
:1032C4002568AE682C4931401143A960A168B1F565
:1032D400807F01D0012902D12369013B1B052568A8
:1032E400E96A21F470010B43EB6223689968234B6C
:1032F4000B409A422CD0A36A23F0120343F010032C
:10330400A362E36A43F00103E36201202EE0C36297
:1033140080F82430FFF724FEA8E7E169B1F5402FD7
:10332400BBD14FF40021B8E74FF48075C0E731B941
:10333400A169013945EA413141F40065BBE7A16A5D
:1033440041F02001A162E16A41F00101E162B2E7CA
:103354000023E362A36A23F0030343F00103A3629F
:1033640004E0A36A43F01003A3620120F8BD012026
:10337400704700BF003C0140FDF7E1FFFE0E1FFF58
:103384000F4B1A6842F001021A6059680D4A0A404C
:103394005A601A6822F0847222F480321A601A6821
:1033A40022F480221A605A6822F4FE025A604FF412
:1033B4001F029A60044B4FF000629A60704700BF8E
:1033C400001002400000FFF800ED00E02DE9F04F8E
:1033D40089B08D4B9A6942F004029A619A6902F0AD
:1033E40004020192019A9A6942F008029A619A6968
:1033F40002F008020292029A9A6942F010029A615B
:103404009B6903F010030393039B4FF00009CDF86D
:103414001490CDF8189002270797202304937B4D2E
:1034240004A92846FFF794FB4022049204A92846E5
:10343400FFF78EFB4FF0800ACDF810A004A92846B0
:10344400FFF786FB4FF4806BCDF810B0704C04A9E5
:103454002046FFF77DFB4FF4006ACDF810A004A9C5
:103464002046FFF775FB4FF48056049604A92046C6
:10347400FFF76EFB4FF00108CDF81880049606F1B3
:10348400804606F5784604A93046FFF761FBCDF87F
:1034940010B004A92846FFF75BFBCDF810A004A9DF
:1034A4002846FFF755FBCDF81890049704A9304639
:1034B400FFF74EFBCDF814804FF00409CDF81090BF
:1034C40004A92846FFF744FB102104910DEB0100E9
:1034D40001463046FFF73CFB2023049304A8014631
:1034E4003046FFF735FB03230593CDF8108004A87D
:1034F40001462046FFF72CFBCDF8108004A80146B6
:103504003046FFF725FB4FF0080ACDF810A004A8B9
:1035140001462046FFF71CFB049704A801462046F9
:10352400FFF716FB1021049169442046FFF710FBB6
:103534002023049304A92046FFF70AFBCDF810903A
:1035440004A92046FFF704FBCDF810A004A93046D7
:10355400FFF7FEFACDF8109004A93046FFF7F8FA09
:1035640005974022049204A92046FFF7F1FA4FF090
:10357400800ACDF810A004A92046FFF7E9FA4FF419
:103584008079CDF8109004A92046FFF7E1FACDF830
:1035940010A004A93046FFF7DBFACDF8108004A987
:1035A4002846FFF7D5FA049704A92846FFF7D0FA6E
:1035B400CDF8109004A93046FFF7CAFA4FF400730F
:1035C400049304A93046FFF7C3FACDF810B004A958
:1035D4003046FFF7BDFA4FF40053049304A928467C
:1035E400FFF7B6FA4FF48043049304A92846FFF783
:1035F400AFFA4FF40043049304A92846FFF7A8FA4E
:1036040009B0BDE8F08F00BF00100240000C01407B
:10361400001001402DE9F04F99B07B4B9A6942F4B8
:1036240000629A619A6902F400620192019A9A69AD
:1036340042F400529A619B6903F400530293029B83
:10364400724EDFF8CC91C6F80090002474604FF0FD
:10365400200AC6F808A04FF4FA6BC6F80CB034611F
:103664007461B4613046FEF7EFFF1023169317948C
:1036740016A93046FFF71DF960230F931094119497
:1036840008271297139414944FF40072159222464B
:103694000FA93046FFF72AF804220FA93046FFF796
:1036A40025F83A460FA93046FFF720F84FF4006199
:1036B40008914FF4806009900A9430250B950C947E
:1036C4000D940E940DEB0A0C61463046FFF7C5F8D5
:1036D400504DDFF84481C5F800806C60C5F808A03F
:1036E400C5F80CB02C616C61AC612846FEF7ACFFE8
:1036F400CDF858A0802317930DF1580C6146284645
:10370400FFF7D7F804940523039303A92846FEF78B
:103714002FFF5023C8F8243060230F931094119482
:103724001297139414944FF40072159222460DF1DB
:103734003C0C61462846FEF7D9FF04220DF13C0CEF
:1037440061462846FEF7D2FF3A460DF13C0C61462D
:103754002846FEF7CBFF4FF4006108914FF48060D8
:1037640009900A9430230B930C940D940E940DEB52
:103774000A012846FFF771F8D8F8443023F40043CF
:10378400C8F84430D9F8443023F40043C9F844302D
:1037940021462846FFF726F804212846FFF722F899
:1037A40039462846FFF71EF821462846FFF743F816
:1037B40004212846FFF73FF839462846FFF73BF82F
:1037C40021463046FFF70EF804213046FFF70AF889
:1037D40039463046FFF706F821463046FFF72BF806
:1037E40004213046FFF727F839463046FFF723F81F
:1037F4002B6801221A633268136843F001031360D3
:1038040019B0BDE8F08F00BF00100240D0020020C4
:10381400002C014090020020003401402DE9F043C7
:1038240087B0434EB36943F40073B361B36903F4DF
:1038340000730093009B3F4C3F4B23604FF4807315
:10384400A3600025E56065614FF44023E361656092
:103854004FF00508C4F810802046FFF7FFFC374AF4
:10386400536843F4802353604FF4C023059305A9A0
:103874002046FFF747F804950B2702974FF00109FC
:10388400CDF80C9002A92046FFF76CFBCDF8109000
:1038940002950223039302A92046FFF763FB0E233C
:1038A40002930323039302A92046FFF75BFB0C2337
:1038B40002930423039302A92046FFF753FB072333
:1038C400049310230293CDF80C8002A92046FFF73D
:1038D40049FB2268936843F4000343F480739360C4
:1038E400936843EA09039360736943EA09037361C4
:1038F400736903EA09030193019B114B9D60C3F8AB
:103904000C80104A1A61104A5A6140F6A2229A6049
:103914009A6842EA09029A602A4629463846FFF71D
:1039240033F83846FFF768F807B0BDE8F08300BF06
:103934000010024030020020002401400000014039
:10394400000002404C2401401C020020F0B585B068
:10395400274B9A6942F480629A619B6903F48063FD
:103964000093009B234C244B23604FF48073A3608B
:103974000025E56065614FF46023E3616560052619
:1039840026612046FFF76AFC03950A23019301256B
:10399400029501A92046FFF7E5FA03950D2301934B
:1039A4000227029701A92046FFF7DCFA0F230193AF
:1039B4000325029501A92046FFF7D4FA01970423B1
:1039C40002930DEB03012046FFF7CCFA0195029612
:1039D40001A92046FFF7C6FA23689A6842F4807268
:1039E4009A609A6842F001029A6005B0F0BD00BF87
:1039F40000100240600200200028014070B5204CF5
:103A0400002384F8FB3084F8FA30022284F8F92089
:103A1400012684F8FD6042F6E062A4F8CE204FF45B
:103A24007A51A4F8DA1084F8FE304FF47A63A4F8DB
:103A3400D0304FF4C873A4F8CC30A4F8E010A4F844
:103A4400E220104D4FF4807221462846FCF730FCEA
:103A540085F8FA600C4804600C4BC3600C4B43605F
:103A64000C4B83600C4C25600C4BE3600C4B636087
:103A74000C4BA36003F0C8F8204603F0C5F870BDF2
:103A8400C400002094040020740400201C030020BF
:103A940094050020B405002084040020C8030020FD
:103AA400A4050020C40500200C4B93F8FE301BB97C
:103AB4000B4B93F8FE3043B10A4B4FF47A721A80E1
:103AC400094B4FF618421A807047064B4FF47A722E
:103AD4001A80054B4FF618421A807047C400002024
:103AE40094040020120300201403002010B5084B96
:103AF40000221A70082405E0064B1C706420FFF7AE
:103B04001DFA013C002CF7DA024B00221A7010BD9A
:103B14000B0600200C060020034B1870034B197091
:103B2400034B1A70704700BF0B0600200C060020E0
:103B34000E06002038B50025044B1D70044C20707F
:103B44004FF4FA70FFF7FAF9257038BD0B06002020
:103B54000C06002038B50025044B1D70044C207061
:103B64006420FFF7EBF9257038BD00BF0B06002079
:103B74000C0600200B4A002313800B4BB3F90810EA
:103B84008BB21180094909895B1A1BB2138003EBBC
:103B9400D3735B101380002BB8BF5B42044A1380BD
:103BA400704700BFD4050020B4050020C4050020E0
:103BB400D605002010B51A4B83FB00C44FEAE07E03
:103BC400CEEBE41E83FB02434FEAE27CCCEBE3132F
:103BD4009E451BD0124C84FB01C44FEAE17CCCEB24
:103BE400E41C634515D0904215DC8A4215DBE6459A
:103BF4000AD0022464280ADD40F69A739A4206DC4D
:103C04000220FFF797FF02E00124F3E70024204697
:103C140010BD0024FBE70024F9E70024F7E700BF08
:103C24001F85EB512DE9F04788B0FDF7FDFF01F04A
:103C3400CDFA0DF11E017D4B188801F0A1FABDF8F3
:103C44001E2041F201039A4201D00025CBE0774EB9
:103C540007A9708801F094FABDF91C30744DA5F8D9
:103C6400CE30744CA4F8CE3007A9B08801F088FA9D
:103C7400BDF91C30A5F8DA30A4F8DA300026002E9D
:103C840040F0B380F400E31CDFF8A08107A938F802
:103C9400130001F075FA9DF81C30A21B664D05EB6C
:103CA40042052B71231D07A938F8130001F068FAA7
:103CB400BDF91C30EB80631D07A938F8130001F02F
:103CC4005FFABDF91C302B81A31D07A938F8130036
:103CD40001F056FABDF91C306B81E31D07A938F8D1
:103CE400130001F04DFA9DF81C30DFF85091A71B2A
:103CF40009EB47073B7106F1010A4FEACA0307A91A
:103D040038F8130001F03CFABDF91C30FB8004F1D3
:103D1400090307A938F8130001F032FABDF91C3081
:103D24003B8104F10A0307A938F8130001F028FACB
:103D3400BDF91C307B81B5F90A203979B7F9060041
:103D4400B7F9084004930394029001910092B5F9E5
:103D54000830B5F9062029793948FCF787FB5FFA62
:103D64008AF68CE72C46C5EBC503334A02EB4303C2
:103D7400597903293ED0C5EBC5032F4A02EB43030F
:103D84001971C4EBC4032D4A02EB43035979032987
:103D94003ED0C4EBC403294A02EB43031971C4EBBC
:103DA400C403254901EB4301B1F90A00234A02EB9C
:103DB40043031E79B3F90670B3F90830C4EBC404A5
:103DC40002EB4404B4F90A20049203930297019687
:103DD4000090B1F90830B1F9062009791848FCF7C8
:103DE40045FB0135EDB2002DBCD0FDF731FF08B025
:103DF400BDE8F087C5EBC50602EB4606B6F90A2016
:103E0400B6F90810B6F90600FFF7D4FE3071B8E72A
:103E1400C4EBC40602EB4606B6F90A20B6F908104C
:103E2400B6F90600FFF7C6FE3071B8E76800002057
:103E340094040020C400002090000020A000002072
:103E4400B86D000890F804C0BCF1010F05D0BCF1B6
:103E5400020F17D0002343807047B0F90030B0F947
:103E640006C0A3EB0C0302FB03F3B0F90A10A1EBA9
:103E74000C0193FBF1F39A4202DB23EAE37212B2E0
:103E84004280704730B5B0F90030B0F908C0B0F9DD
:103E94000CE0ACEB0E04A34206DD0CEB0E05AB42CA
:103EA40002DA0023438012E0634511DDF444A3EBFE
:103EB4000C0302FB03F3B0F90A10A1EB0C0C93FB07
:103EC400FCF39A4202DB23EAE37212B2428030BD71
:103ED4001B1B01FB03F3B0F90620141B93FBF4F343
:103EE400002B02DD00214180F1E79942B8BF194659
:103EF40009B2F8E7094B1B7873B9094AB2F80EC046
:103F0400C3EBC3004100074820F801C0518AC3EB4A
:103F1400C3035A00044B9952704700BF1903002091
:103F24001C02002090000020A000002008B5354BA2
:103F34001B78002B3BD13449C3EBC30042008818E3
:103F4400895EB0F90620C83A914224DBC3EBC30270
:103F540050002D4A0244B2F90A20C83291421ADCB8
:103F64002A49C3EBC30042008818895EB0F90620D1
:103F7400C83A91420FDBC3EBC3025000234A024408
:103F8400B2F90A20C832914205DC002220490A70A5
:103F940020490A800BE01F490A88501C0880632AC4
:103FA40005D91B4A012111701A4A64211180184A4B
:103FB40012782AB9184A127812B9184A1278A2B19A
:103FC4000021174A1170C3EBC30250000E4A024489
:103FD40051800E4A0244518013B1124A12784AB1F8
:103FE40013B9104B1B784BB908BD0F4A11780C4A12
:103FF4001170F1E70820FFF7ADFDF5E71220FFF798
:10400400A9FDF1E71903002090000020A000002082
:10401400D8050020AE000020D905002010030020A0
:104024008E0000201A0300208F00002070B5FFF7D7
:1040340061FF194E3078194D194CC0EBC000B5F929
:104044000020B4F90010174B03EB4000FFF7FAFE11
:104054003078C0EBC000B5F90020B4F90010124B61
:1040640003EB4000FFF7EEFEFFF760FF0F4C4FF449
:1040740080612046FEF78CFEB0FA80F040090C4BBC
:1040840018704FF400612046FEF782FEB0FA80F00B
:104094004009084B187070BD19030020120300205A
:1040A4001403002090000020A0000020000C014018
:1040B40016030020170300202DE9F843374B1B7823
:1040C40013B9374B1B78C3B1FDF7AEFD354C41F244
:1040D4000101208801F008FA334DB5F9CE1089B2F8
:1040E400608801F001FAB5F9DA1089B2A08801F00C
:1040F400FBF900251DB1FDF7ABFDBDE8F883EC002D
:10410400E01C621B5300294F1F44264E397936F8B0
:10411400100001F0E9F9231DB7F9061089B236F849
:10412400130001F0E1F9631DB7F9081089B236F8FC
:10413400130001F0D9F9A31DB7F90A1089B236F8B2
:10414400130001F0D1F9E21DDFF86480631B5F0006
:104154004744397936F8120001F0C6F905F101092E
:104164004FEAC903B7F9061089B236F8130001F013
:10417400BBF904F10903B7F9081089B236F8130042
:1041840001F0B2F904F10A02B7F90A1089B236F85B
:10419400120001F0A9F95FFA89F5ABE71B030020CF
:1041A4001803002068000020C400002090000020B4
:1041B400A000002010B500240B4B1C700B4B1C708E
:1041C4000B4B1C7005E00B4B1C706420FEF7B6FE15
:1041D4000134072CF7DDFFF76FFF0022202106488A
:1041E400FEF7DDFDFEE700BF200600200B060020E1
:1041F4000E0600200C0600200008014010B41468CC
:104204002313C3EB00104FEAE07CA1FB000301FB86
:104214000C31000940EA01700911B0F1004F71F14D
:10422400000308DA0346B0F1004F71F1FF3104DAFC
:104234004FF0004301E06FF000431C44146010BCD5
:10424400704700002DE9F04F85B0FFF793FC564B03
:10425400B3F90030052B02DD05B0BDE8F08FFFF7A0
:1042640049FE524B1B78C3EBC301514A32F911206A
:10427400120403924F4A32F9112012040292002BC5
:1042840000F08E80002301930025DFF82C812E4658
:1042940047F6FF79C2462F46CB462CE0FFF72AFEAD
:1042A400424D2B78C3EBC30303AA41F6991140484E
:1042B40030F91300FFF7A2FF2B78C3EBC30302AA64
:1042C40041F699113B4830F91300FFF797FFBDF908
:1042D4000E70BDF90A60BB45A8BFBB46BA45B8BF5E
:1042E400BA46B145A8BFB146B045B8BFB0460520EF
:1042F400FEF724FE254602213048FEF749FD20B989
:104304006C1CA4B2B5F57A6FC8D3524639465846E8
:10431400FFF750FCC4B2254B1B78C3EBC303244AFC
:1043240002EB43035B79A34202D0032B00D00024A9
:10433400424631464846FFF73DFCC0B21B4B1B7852
:10434400C3EBC3011B4A02EB41025279824202D001
:10435400032A00D0002014B900283FF47DAFC3EB3A
:10436400C301134A02EB41021471019CA344A2F855
:1043740006B01781AAEB040AA2F80AA00D49C3EB00
:10438400C30201EB42021071A144A2F80690168107
:10439400A8EB0408A2F80A80094B01221A705BE713
:1043A4006423019370E700BFD605002019030020A1
:1043B40090000020A00000200080FFFF00080140C2
:1043C4001B03002030B583B0FFF7D4FB514BB3F986
:1043D4000030052B00F396804F4B1B78C3EBC301D1
:1043E4004E4A32F91120120401924D4A32F9113029
:1043F4001B04009300244B4B1C701CE0FFF77AFD58
:10440400454C2378C3EBC30301AA41F699114348F1
:1044140030F91300FFF7F2FE2378C3EBC3036A46B7
:1044240041F699113E4830F91300FFF7E7FE0520E5
:10443400FEF784FD2C4602213B48FEF7A9FC20B977
:10444400631C9DB2B4F5FA6FD8D3334B1B78C3EB1E
:10445400C302324901EB4201B1F90600019AA2EB11
:104464000042B1F90A10091A92FBF1F2B2F5803F49
:104474004ADA41F699118A42B8BF0A4694B2C3EBAC
:10448400C301274800EB4101B1F90600009AA2EBF1
:104494000042B1F90A10091A92FBF1F2B2F5803F19
:1044A40035DA40F6CC418A42B8BF0A4691B2C3EB32
:1044B400C3021A4800EB420212796AB140F2EE22BA
:1044C40004FB02F212131948A0F8CE201848A0F8F1
:1044D400CE20144A01201070C3EBC303104A02EB30
:1044E40043031B7973B14FF47A7303FB01F2131383
:1044F4000E4AA2F8DA300E4AA2F8DA30094A1378E2
:104504000233137003B030BD4FF6FF74B7E74FF6B4
:10451400FF71CCE7D605002019030020900000208D
:10452400A00000201803002000080140940400208B
:10453400C400002038B502212448FEF729FC90B9B4
:1045440038BD254602212148FEF722FC68B10A2025
:10455400FEF7F4FC6C1CA4B2B5F5FA7FF1D105208A
:10456400FFF7F8FAEDE70025ECE7082D02D9184B20
:1045740000221A70B5F5FA7F03D2082DE0D9FFF7AF
:1045840019FE4FF47A70FEF7D9FC02210F48FEF7AA
:10459400FFFB58B91020FFF7CDFAFFF753FE0520B3
:1045A400FFF7D8FACCE70A20FEF7C8FC0221074837
:1045B400FEF7EEFB0028F6D10820FFF7BBFAFFF761
:1045C40001FF0520FFF7C6FABAE700BF0008014063
:1045D4002006002003019BB210881B1A1BB28B42D9
:1045E40004DC494209B28B4200DB194601441180C4
:1045F4007047000010B54FEA610EA0EB6101B1F500
:10460400004F26DA174CA142B8BF21460911118088
:10461400154CB4F900C061451EDC144CB4F90040DB
:10462400A142B8BF214611807044B0F5004F15DA9D
:104634000C4A9042B8BF104602111A80944505DB1B
:104644000A49B1F900C09445B8BF9446A3F800C024
:1046540010BD47F6FF71D9E76146E4E747F6FF70FE
:10466400EAE700BF0080FFFF1203002014030020CC
:1046740030B597B002250C950123109310231193A4
:104684001395002414944FF4601315930CA8FDF7AC
:1046940083FB0F230793089509944FF480630A93CF
:1046A4000B94294607A8FDF79FFD01954FF480431D
:1046B400039301A8FEF77EFBFDF754FE084BA3FB12
:1046C40000308009FEF7A4F90420FEF7B5F922466C
:1046D40021464FF0FF30FEF757F917B030BD00BF49
:1046E400D34D621070B582B0FEF708FC364CA36956
:1046F40043F00103A361A36903F001030093009B4A
:104704000320FEF72FF9002211466FF00B00FEF78D
:104714003BF9002211466FF00A00FEF735F900223A
:1047240011466FF00900FEF72FF9002211466FF0D1
:104734000400FEF729F9002211466FF00300FEF78A
:1047440023F9002211466FF00100FEF71DF9002243
:1047540011464FF0FF30FEF717F9FFF789FF636941
:1047640023F001036361FEF731FEFEF753FFFFF709
:1047740055F8FFF7EBF8FFF741F901222021134820
:10478400FEF70DFBFFF790F9FFF74CFA1048FEF720
:10479400CBFC1048FEF7C8FCFFF7A8F9012204215E
:1047A4000D48FEF7FCFA0D4A138A1B040193138A81
:1047B40002E00A20FEF7C2FB02210448FEF7E8FAF1
:1047C4000028F6D1E0E000BF0010024000080140DC
:1047D4003002002060020020000C01401C02002076
:1047E400AE4CAF4D2B78C3EBC303AE4A02EB43038D
:1047F40022464FF4F071B3F90200FFF7EBFEAA4E24
:104804002B78C3EBC303A94A02EB430332464FF4AC
:10481400F071B3F90200FFF7DDFEA54DB4F9000015
:104824002A4641F699110011FFF7E8FCA14CB6F9AC
:104834000000224641F699110011FFF7DFFCB5F99B
:1048440002109D4B1980B4F902009C4B18800001A2
:1048540009019B4C9B4D23462A4609B200B2FFF73F
:10486400C9FEB5F900305B42974A1360B4F90020E1
:10487400964B1A60964B188A01AA40F28F2180B297
:10488400FFF7BCFCBDF90630A3F2776303EB831298
:1048940003EB42038F4A82FB0312DB17A3EB620391
:1048A40003F5B3738C4A13808C4CB4F9003040F692
:1048B400827202FB03F302F1AF4202F5B30202F289
:1048C4004F1282FB0312DB17C3EB6223844A13806B
:1048D400844B9B89C3EBC3335B009AB282490B8040
:1048E400824B9B89C3EBC3335B0099B2804803803E
:1048F4005318804A1380FFF71DFEB4F9003040F2CC
:10490400F142934205DC7C4AB2F90020132A40F3B9
:1049140083807A4A92791AB9794A9279002A7ED0A8
:10492400784B00221A70012218211046FFF7F4F880
:10493400754A136801331360614BB3F90030002BDF
:10494400B8BF5B429BB2322B08D85E4BB3F9003040
:10495400002BB8BF5B429BB2322B02D96A4B0022B8
:104964001A60694B1A68694B9A4201D9FFF722FC15
:104974004B4B1A78664B1A70664B1A68664B1A6072
:10498400664A136801331360624B1B68624A1268FB
:104994009B1A502BF8D9FFF749FBFFF7EBF8594B5B
:1049A4001B78002B7FF41CAF544B9B79002B7FF4B6
:1049B40017AF534B9B79002B7FF412AF384B1A7807
:1049C400C2EBC201374B03EB4103B3F90230002BB6
:1049D400B8BF5B429BB2312B3FF602AF334B03EBC4
:1049E4004102B2F90230002BB8BF5B429BB2312BBB
:1049F4003FF6F6AE0620FFF7ADF80420FFF7AAF85D
:104A04006420FEF79BFA00232A4A1360284A1360A5
:104A14003C4B01221A70E3E6FFF7CCFB88E7404ADF
:104A240012781ABB3F4A127832BB3F4A12784ABB0B
:104A340040F2225293422BDD224BB3F9003013F1A2
:104A4400320F05DB1E4BB3F9003013F1320F04DAD9
:104A5400364BB3F90030002B6CDB002211461046B4
:104A6400FFF75AF8324B00221A7061E7012218212D
:104A74000220FFF751F85BE7012218210320FFF71A
:104A84004BF855E7012218210420FFF745F84FE7BA
:104A940006220A210020FFF73FF849E70806002014
:104AA400190300209000002000060020A000002030
:104AB40004060020FC05002002060020FA05002060
:104AC400E4050020E60500202C060020280600202E
:104AD4001C0200206B4CA407DE050020B00000205F
:104AE400DC05002094050020F0050020A40500202A
:104AF400F8050020E8050020D6050020B4050020B4
:104B0400C405002020060020EC05002080380100A8
:104B14001A03002010060020E0050020F405002000
:104B2400D8050020D905002010030020D40500205A
:104B3400DA050020012205210020FEF7EDFF024BDB
:104B440001221A70F4E600BFDA050020994B022214
:104B54005A60994B1B88B3F5FA6FC0F0A08010B56A
:104B6400964B1A68964BA3FB02139B094FF47A7178
:104B740001FB1323002B00F0D380924B9A8891B24F
:104B8400914A1288521A91490A80DA8891B2904A5D
:104B94001288521A8F490A805A8891B28E4A128812
:104BA400521A12B28D490A80198988B28C4909882F
:104BB400091A8C480180598988B28B490988091AD5
:104BC4008A4801801B8899B2894B1B885B1A1BB2E7
:104BD40088490B80002AB8BF524292B240F2523147
:104BE4008A4204D8844A1278002A40F0A780834974
:104BF4004A6C22F400424A64002BB8BF5B429BB269
:104C040040F25232934204D87B4B1B78002B40F085
:104C14009B807B4A536C23F400435364674A1368B4
:104C240001331360774B1A78002A00F09380634BAA
:104C34001B687549A1FB03131B0B744909780131E7
:104C4400B3FBF1F001FB1033002B40F08380704B79
:104C54001B787BB96E4B012119706E490B780133B7
:104C6400DBB20B706C49097802318B4202DD694B6F
:104C740001211970514B1B68B3FBF2F102FB113394
:104C8400002B6AD1634B1A78634B1B789A4201D983
:104C9400002B62D110216148FEF787F85DE00133F3
:104CA400454A1380474A938899B24748B0F900307F
:104CB4000B4403EBD3735B100380D38899B244484D
:104CC400B0F900300B4403EBD3735B1003801389FA
:104CD40099B24348B0F900300B4403EBD3735B1033
:104CE4000380538999B24048B0F900300B4403EB78
:104CF400D3735B100380538899B23748B0F90030FE
:104D04000B4403EBD3735B10038013889AB23849C6
:104D1400B1F90030134403EBD3735B100B8070477D
:104D2400284B98893E4C224640F28F2180B2FFF7EF
:104D340065FAB4F902203B4B1A801EE72F494A6CEE
:104D440042F400424A6457E72D4A536C43F400434B
:104D5400536463E72E4B1B78FBB9334B93F8F9305C
:104D6400022B23D0314B00221A80314B1B78002BAD
:104D740040F00D812E4B01221A701F4B1B78002B23
:104D84005CD02C4B9B79002B40F002812A4B9B7901
:104D9400002B00F0FF80002251E0002210211F4868
:104DA400FDF7FDFF1A4B00221A70D6E71F4B6E2247
:104DB4001A80DAE7000002402206002010060020D4
:104DC400D34D62101C020020BC00002016060020F7
:104DD400BE00002018060020B800002014060020A1
:104DE400C00000201C060020C20000201E06002077
:104DF400BA0000201A0600202006002000340140DA
:104E0400002C01400C0600205917B7D10E060020D3
:104E14000F0600200D0600200B06002000080140AC
:104E2400B4000020B0000020C400002024060020AC
:104E34000A060020B4050020C40500200022D2B2D6
:104E44006D4B1A706D4B996811F0200F0CBF012443
:104E54000024996811F0400F0CBF012000209B68CA
:104E640013F0800F0CBF01210021654B1A70654AB5
:104E740012785A70644A12685A801C715871997178
:104E8400624A12881A81624A12885A81614A1288D7
:104E94009A81614B186800F0EDFD604BB3F9001086
:104EA400B3F90220B3F904C001F2E7345C4BB3F95F
:104EB4000030C3F5FA6084426EDB81B2594C616301
:104EC40002F2E73188426FDCC3F5FA6292B25549C7
:104ED4008A630CF2E73290426EDCC3F5FA639BB24C
:104EE400504AD363504B9A6812F4806F0CBF012070
:104EF40000209A6812F4006F0CBF012100219B6806
:104F040013F4805F0CBF01220022484B3A4C2478F2
:104F14001C703C4C24785C70454C24685C8018718F
:104F240059719A71434A12881A81434A12885A81E4
:104F3400424A12889A81424B186800F09BFD414B0B
:104F4400B3F90010B3F90220B3F904C001F2E73455
:104F5400334BB3F90030C3F5FA60844234DB81B2D9
:104F6400394C616302F2E731884235DCC3F5FA62F9
:104F740092B235498A630CF2E732904234DCC3F5CD
:104F8400FA639BB2304AD363304B00221A7010BDCF
:104F9400002254E7012252E701F57A74A34201DCAE
:104FA400A1B28BE799B289E702F57A718B4201DCF1
:104FB4008AB28CE79AB28AE70CF57A72934201DCE2
:104FC40093B28DE79BB28BE701F57A74A34201DCBF
:104FD400A1B2C5E799B2C3E702F57A718B4201DC4D
:104FE4008AB2C6E79AB2C4E70CF57A72934201DC3E
:104FF40093B2C7E79BB2C5E721060020000C01402D
:10500400940500208E0000202806002016060020AB
:105014001806002014060020146E0008B4050020B1
:10502400240600200034014000100140A4050020A3
:105034002C0600201C0600201E0600201A06002054
:10504400186E0008C4050020002C01400A06002048
:1050540000E00430064B984207D203889BB24FF617
:10506400FF729342F5D0002070470120704700BFC3
:1050740000080108114B1B889BB2114A128892B296
:1050840088B1012813D13AB94EF6EE618B4201D0B2
:1050940040230DE013460BE063B94EF6EE618A42FD
:1050A40006D1402304E01BB132B9402300E00023C1
:1050B40018467047AB23FBE7AB23F9E70000010870
:1050C4000000020870B506460D460120FFF7D2FF26
:1050D400AB2821D000F580342034E40201300F4B9A
:1050E40003EBC02C644516D22368B3F1FF3F01D013
:1050F4000434F7E72A46002321460120FCF7E6FDA5
:1051040008B180B208E032460023A11C0120FCF75C
:10511400DDFD80B200E0802070BD00BFFFFF00080D
:1051240010B586B000230593019312480390012320
:105134000493FFF78DFF28B905A901A8FDF7B6FC74
:10514400044638B9002200230A490120FCF7BEFDB9
:10515400044610B1204606B010BD074B0393074820
:10516400FFF776FF0028F5D105A901A8FDF79EFCFD
:105174000446EFE70000010800800108000002086F
:1051840038B504460D460020FFF774FFAB2819D04C
:1051940000F5803C0CF1200C4FEACC2C01300A4B7A
:1051A40003EBC0230CF102029A420AD21A8892B28B
:1051B400A24201D0043BF5E733F8023C2B800020E7
:1051C40000E0012038BD00BFFEFF0008F0B587B045
:1051D400002205928C4B1E88B6B28C490D88ADB264
:1051E40001920393012304934EF6EE639E4240D052
:1051F4004FF6FF739E420BD0002E00F0A280FFF703
:105204008FFF002840F0FE800025284607B0F0BD3F
:1052140045B14EF6EE639D4213D0FFF781FF30BBDC
:105224000025F2E77848FFF713FF04460028ECD185
:1052340005A901A8FDF73AFC08B92546E5E785B2BA
:10524400E3E77148FFF704FF20B905A901A8FDF7BA
:105254002DFC40B9002200236C490120FCF736FDE7
:1052640018B90025D1E785B2CFE785B2CDE785B27D
:10527400CBE755B34FF6FF739D4248D0FFF750FF7D
:1052840000285CD10025C0E727B20CE00134A4B2A9
:10529400122C1ED85C4BDB889BB226465C4A32F843
:1052A40014008342F0D0BE42F0D05A49FFF768FFA1
:1052B4000128EBD0574B1988554B33F81600FFF7EC
:1052C40001FF0028E2D005469FE72C464FF0FF3748
:1052D400DEE7002200234C490120FCF7F7FC08B16B
:1052E40085B292E7002301934B4B0393012304936C
:1052F4004648FFF7ADFE0446002886D105A901A85B
:10530400FDF7D4FB08B925467FE785B27DE7424B1C
:1053140003933E48FFF79CFE20B905A901A8FDF7B9
:10532400C5FB40B90022002337490120FCF7CEFC1D
:1053340018B9002569E785B267E785B265E785B2E4
:1053440063E73DB14FF6FF739D420AD034464FF0F8
:10535400FF371CE0FFF7E4FE00283FF456AF85B2A8
:1053640053E72D4B03932948FFF772FE054608B116
:1053740035464AE705A901A8FDF798FB00283FF444
:1053840044AF85B241E727B20CE00134A4B2122C39
:105394001AD81E4BDB889BB225461D4A32F81400EE
:1053A4008342F0D0BD42F0D01A49FFF7E9FE01284C
:1053B400EBD0184B1988164B33F81500FFF782FE13
:1053C40005460028E1D020E7002200230F490120F0
:1053D400FCF77CFC08B185B217E7002301930A4867
:1053E400039001230493FFF733FE054608B13546C5
:1053F4000BE705A901A8FDF759FB00283FF405AF09
:1054040085B202E785B200E7000001080000020847
:105414006800002030060020008001082DE9F041DA
:1054240086B005460E4600200590FFF723FE40286F
:1054340011D000284BD1DFF89C80274F4EF6EE6246
:10544400002339460120FCF741FC40B184B22046D8
:1054540006B0BDE8F081DFF884801E4FEEE73146E8
:105464002846FFF72FFE044610B1F0E70134A4B23A
:10547400122C14D81A4B33F81400A842F6D0194948
:10548400FFF77EFE0128F1D0164B1988144B33F830
:105494001400FFF717FE0028E8D00446D7E70023DE
:1054A4000193CDF80C800123049305A901A8FDF70D
:1054B400FDFA08B184B2CAE700220023394601206C
:1054C400FCF704FC08B984B2C1E784B2BFE7AB249B
:1054D400BDE700BF000001080000020800800108C9
:1054E400680000203006002038B504460D46FFF75A
:1054F400E9FD802800D038BD29462046FFF78EFFFD
:10550400F9E77047FEE7FEE7FEE7FEE770477047FE
:10551400704708B5FDF704FDFDF79FFA08BD884202
:1055240009DD401A80B2B0FBF2F0984201D2C0B259
:105534007047D8B2704700207047884209D9401A92
:1055440080B2B0FBF2F0984201D2C0B27047D8B238
:10555400704700207047CB0FB3EBD07F07D090FB90
:10556400F1F301FB13031BB14FF0FF3300E0002301
:1055740090FBF1F018447047018070473AB9B3F9D1
:105584000020104400B2884203DA188070470022D9
:10559400F7E71980704700230360436070470000F9
:1055A40030B48446B0F900401D68A4EB2544B4F53A
:1055B400004F04DA14F5004F03DA0F4C01E047F60C
:1055C400FF7404FB0154201410801C60BCF9020019
:1055D4005C68A0EB2440B0F5004F04DA10F5004FEE
:1055E40003DA054801E047F6FF7000FB01400114AF
:1055F4005180586030BC70470080FFFF01807047C5
:1056040010B4019C42B92288104480B218808842A8
:1056140004D2208010BC70470022F5E72180F9E70E
:1056240013781B1A18BF01230B701070704710B544
:10563400044600210430FFF7E1FF0021A01CFFF71E
:10564400DDFF10BD2DE9F04184B0064688461746BB
:105654001D460A9C22460DF10D01FFF7E1FF0EB134
:10566400A3794BB10EB9A379EBB9A3792B702B783D
:10567400A37104B0BDE8F081231D00930DF10E0366
:105684009DF80D2041460120FFF7BAFFBDF80E300A
:10569400434503D8A37923B1012300E001232B70F0
:1056A400E5E70023FBE7A31C00930DF10E039DF82F
:1056B4000D2039460120FFF7A3FFBDF80E30BB4291
:1056C40003D8A37913B1012300E000232B70CEE7A4
:1056D40041607047002303604160704730B5BDF9F5
:1056E4000CE0049D059C00FB01F109111CD4002968
:1056F40006DD6FF00040401AD4F800C084451CDC7D
:1057040020680844616801444FEA213C41F30F30AA
:10571400984215DD2B802B88A3EB0C031BB203FBF3
:1057240002F22260616030BDC1F10040D4F800C0D3
:105734008445DCDA4FF00040E4E76FF00040E1E735
:10574400704502DAA5F800E0E5E72880E3E70123E5
:1057540003717047002343710123037170470000F4
:1057640070B5BDF910E0BDF91460069D089C00FBFE
:1057740002F2002A1CDB002A05DD6FF0004CACEBC2
:10578400020CAC451BDB02EB050C227902B1236051
:105794006379BBB1002325681D4400FB01F1CB12E2
:1057A400B1F1806F10DA13F5004F0FDA284B0DE0DA
:1057B400C2F1004CAC45DEDD4FF0004CE5E76FF084
:1057C400004CE2E76346E6E747F6FF732A1403EB6F
:1057D40042025310B2F5803F04DA13F5004F03DAA6
:1057E4001B4B01E047F6FF731BB2734518DD079AA4
:1057F400A2F800E0BCF1000F1ADBBCF1000FD4BF2B
:1058040000220122002B16DB002BD4BF0021012132
:10581400914213D00023637100232371256070BD6E
:10582400B34202DA079A1680E4E7079A1380E1E7A5
:105834004FF0FF32E6E74FF0FF31E9E7734503DC51
:10584400B34203DB0023E6E70123E4E70123E2E7B5
:105854000080FFFF0123037170470023437101237C
:105864000371704770B5BDF910E0BDF91460069D71
:10587400089C00FB02F2002A1DDB002A05DD6FF004
:10588400004CACEB020CAC451CDB02EB050C2279A2
:105894000AB11B0423606379BBB1002325681D444E
:1058A40000FB01F1CB12B1F1806F10DA13F5004F58
:1058B4000FDA294B0DE0C2F1004CAC45DDDD4FF0B1
:1058C400004CE4E76FF0004CE1E76346E6E747F697
:1058D400FF732A1403EB42025310B2F5803F04DA3B
:1058E40013F5004F03DA1C4B01E047F6FF731BB2BC
:1058F400734518DD079AA2F800E0BCF1000F1ADB2B
:10590400BCF1000FD4BF00220122002B16DB002BB8
:10591400D4BF00210121914213D0002363710023DD
:105924002371256070BDB34202DA079A1680E4E75A
:10593400079A1380E1E74FF0FF32E6E74FF0FF31BB
:10594400E9E7734503DCB34203DB0023E6E7012305
:10595400E4E70123E2E700BF0080FFFF0123837037
:1059640070470023C37001238370704770B5BDF97D
:1059740010E0BDF91450069E089C00FB02F2002AB8
:1059840015DB002A05DD6FF0004CACEB020CB445CE
:1059940014DB02EB060CA27802B12380E3789BB9F6
:1059A400BCF1000F0DDB0022624413140DE0C2F1C0
:1059B400004CB445E5DD4FF0004CECE76FF0004CD3
:1059C400E9E74FF6FF72EFE7002322881A4412B288
:1059D40000FB01F1CB12B1F1806F04DA13F5004F33
:1059E40003DA234B01E047F6FF7303EB42014B104C
:1059F400B1F5803F04DA13F5004F03DA1C4B01E0E4
:105A040047F6FF731BB273451ADD0799A1F800E04E
:105A1400BCF1000F1CDBBCF1000FD4BF4FF0000C35
:105A24004FF0010C002B16DB002BD4BF0021012109
:105A3400614513D00023E3700023A370228070BD5E
:105A4400AB4202DA07990D80E2E707990B80DFE7A2
:105A54004FF0FF3CE6E74FF0FF31E9E7734503DC25
:105A6400AB4203DB0023E6E70123E4E70123E2E79B
:105A74000080FFFF2DE9F04F95B00568C4684668C3
:105A8400876831798A00D2B273795800C0B202446F
:105A9400D2B2B07902445FFA82FB003B18BF012303
:105AA40094F89AC094F89B20002918BF83F001034E
:105AB400002818BF83F00103BCF1000F18BF83F066
:105AC4000103002A18BF83F0010394F89C100039E5
